:100000000C943E040C9466040C9466040C946604F0
:100010000C9466040C9466040C9466040C946604B8
:100020000C9466040C9466040C9466040C946604A8
:100030000C9466040C9466040C9466040C94660498
:100040000C949A0C0C9466040C94680C0C94420C5E
:100050000C9466040C9466040C9466040C94660478
:100060000C9466040C946604000000080002010071
:100070000003040700000000000000000040A0E3AF
:10008000F0402DE9FC009FE530FF2FE1F8009FE5EF
:1000900030FF2FE1F4009FE5F4009FE5010080E2CE
:1000A0000010D0E5000051E3FBFFFF1AC4108FE2FF
:1000B000002091E5043091E5002080E5043080E5E2
:1000C000082091E50C3091E5082080E50C3080E5B2
:1000D000BC009FE5BC109FE5BC409FE531FF2FE1D0
:1000E0000000C4E5B4009FE574104FE2B0209FE526
:1000F000021081E00020A0E3A8309FE5A8409FE522
:10010000095080E2005084E5D040C1E1F040C0E1F8
:10011000D840C1E1F840C0E1D041C1E1F041C0E1C7
:10012000D841C1E1F841C0E1D042C1E1F042C0E1B3
:10013000D842C1E1F842C0E1D043C1E1F043C0E19F
:10014000D843C1E1F843C0E13E0F07EE5FF07FF511
:10015000400080E2401081E2402082E2030052E150
:10016000E8FFFF3A0000A0E3150F07EE4FF07FF520
:100170006FF07FF5F080BDE82050574E443A5B6346
:100180006865636B6D385D00597100007171000026
:10019000EFBEADDEE0DD023479780000B4C1023498
:1001A00000980334800100004001000004D90234AB
:1001B000000000000000000000000000000000003F
:1001C000000000000000000000000000000000002F
:1001D000000000000000000000000000000000001F
:1001E000000000000000000000000000000000000F
:1001F000000000000000000000000000DFF800F038
:10020000617D0000028840F2A1239A42F6D1F0B548
:1002100003AF84B0041C2E4D4FF6FF7162889142EB
:1002200037D1D5E900012B4A904217D1914215D11F
:100230000021C5E90011D5E90801D5E90A23CDE976
:100240000001CDE90223D5E90401D5E90623AE6812
:10025000B047214AC5E90201C5E900221F4A904280
:100260000DD191420BD10021C5E90011D5E904015E
:10027000AA6900F017F8184AC5E9002209E0184AEF
:10028000904206D1174B9847011C0020104A164B8C
:1002900098478020291CE2880023144CA0470020A6
:1002A00004B0F0BD042A05D30B68036004300431A8
:1002B000043AF7E7022A04D30B88038002300231A4
:1002C000023A22B10B78037001300131013A7047D4
:1002D0000000003463657865656E6F64636D656DFD
:1002E0000E0000EA456C0000815E0000F57200001F
:1002F0000000000000000000000000000040A0E33B
:10030000F0402DE9FC009FE530FF2FE1F8009FE56C
:1003100030FF2FE1F4009FE5F4009FE5010080E24B
:100320000010D0E5000051E3FBFFFF1AC4108FE27C
:10033000002091E5043091E5002080E5043080E55F
:10034000082091E50C3091E5082080E50C3080E52F
:10035000BC009FE5BC109FE5BC409FE531FF2FE14D
:100360000000C4E5B4009FE574104FE2B0209FE5A3
:10037000021081E00020A0E3A8309FE5A8409FE59F
:10038000095080E2005084E5D040C1E1F040C0E176
:10039000D840C1E1F840C0E1D041C1E1F041C0E145
:1003A000D841C1E1F841C0E1D042C1E1F042C0E131
:1003B000D842C1E1F842C0E1D043C1E1F043C0E11D
:1003C000D843C1E1F843C0E13E0F07EE5FF07FF58F
:1003D000400080E2401081E2402082E2030052E1CE
:1003E000E8FFFF3A0000A0E3150F07EE4FF07FF59E
:1003F0006FF07FF5F080BDE82050574E443A5B63C4
:100400006865636B6D385D0059740000717400009D
:10041000EFBEADDE00DE0234FD7B0000A8C1023479
:1004200000980334800100004001000024D9023408
:1004300000000000000000000000000000000000BC
:1004400000000000000000000000000000000000AC
:10045000000000000000000000000000000000009C
:10046000000000000000000000000000000000008C
:10047000000000000000000000000000DFF800F0B5
:10048000E1800000028840F2A1239A42F6D1F0B543
:1004900003AF84B0041C2E4D4FF6FF716288914269
:1004A00037D1D5E900012B4A904217D1914215D19D
:1004B0000021C5E90011D5E90801D5E90A23CDE9F4
:1004C0000001CDE90223D5E90401D5E90623AE6890
:1004D000B047214AC5E90201C5E900221F4A9042FE
:1004E0000DD191420BD10021C5E90011D5E90401DC
:1004F000AA6900F017F8184AC5E9002209E0184A6D
:10050000904206D1174B9847011C0020104A164B09
:1005100098478020291CE2880023144CA047002023
:1005200004B0F0BD042A05D30B6803600430043125
:10053000043AF7E7022A04D30B8803800230023121
:10054000023A22B10B78037001300131013A704751
:100550000000003463657865656E6F64636D656D7A
:100560000E0000EA056F0000A1600000097600009F
:100570000000000000000000000000000040A0E3B8
:10058000F0402DE9FC009FE530FF2FE1F8009FE5EA
:1005900030FF2FE1F4009FE5F4009FE5010080E2C9
:1005A0000010D0E5000051E3FBFFFF1AC4108FE2FA
:1005B000002091E5043091E5002080E5043080E5DD
:1005C000082091E50C3091E5082080E50C3080E5AD
:1005D000BC009FE5BC109FE5BC409FE531FF2FE1CB
:1005E0000000C4E5B4009FE574104FE2B0209FE521
:1005F000021081E00020A0E3A8309FE5A8409FE51D
:10060000095080E2005084E5D040C1E1F040C0E1F3
:10061000D840C1E1F840C0E1D041C1E1F041C0E1C2
:10062000D841C1E1F841C0E1D042C1E1F042C0E1AE
:10063000D842C1E1F842C0E1D043C1E1F043C0E19A
:10064000D843C1E1F843C0E13E0F07EE5FF07FF50C
:10065000400080E2401081E2402082E2030052E14B
:10066000E8FFFF3A0000A0E3150F07EE4FF07FF51B
:100670006FF07FF5F080BDE82050574E443A5B6341
:100680006865636B6D385D00657000008170000007
:10069000EFBEADDEA0DD023499770000A0C10234C8
:1006A000009803348001000040010000C4D80234E7
:1006B000000000000000000000000000000000003A
:1006C000000000000000000000000000000000002A
:1006D000000000000000000000000000000000001A
:1006E000000000000000000000000000000000000A
:1006F000000000000000000000000000DFF800F033
:10070000817C0000028840F2A1239A42F6D1F0B524
:1007100003AF84B0041C2E4D4FF6FF7162889142E6
:1007200037D1D5E900012B4A904217D1914215D11A
:100730000021C5E90011D5E90801D5E90A23CDE971
:100740000001CDE90223D5E90401D5E90623AE680D
:10075000B047214AC5E90201C5E900221F4A90427B
:100760000DD191420BD10021C5E90011D5E9040159
:10077000AA6900F017F8184AC5E9002209E0184AEA
:10078000904206D1174B9847011C0020104A164B87
:1007900098478020291CE2880023144CA0470020A1
:1007A00004B0F0BD042A05D30B68036004300431A3
:1007B000043AF7E7022A04D30B880380023002319F
:1007C000023A22B10B78037001300131013A7047CF
:1007D0000000003463657865656E6F64636D656DF8
:1007E0000E0000EA656B0000615E000015720000FB
:1007F00000000000000000000000000008000000F1
:1008000002000000000000000000000000000000E6
:1008100000000000000000000000000000000000D8
:1008200000000000000000000000000000000000C8
:100830000000003400000000000000000000000084
:10084000250028002B0000000000240027002A00BB
:100850000404040404040404020202020202030366
:10086000030303030102040810204080010204086E
:1008700010200102040810200D0DB31211241FBE18
:10088000CFEFD8E0DEBFCDBF24E0AAEBB2E001C0DD
:100890001D92A830B207E1F712E0A0E0B1E0ECEB66
:1008A000FAE202C005900D92AA3BB107D9F714E015
:1008B000CDE3D4E004C02197FE010E944913CC335C
:1008C000D107C9F70E94880D0C9451150C940000B3
:1008D0008CBD9DBD089590E0FC01EC59F74F24912B
:1008E000805B974FFC018491882399F090E0880FFA
:1008F000991FFC01EA5BF74FA591B491FC01E45C00
:10090000F74F859194918FB7F894EC91E22BEC938B
:100910008FBF08950895AF92BF92CF92DF92EF926A
:10092000FF920F931F93CF93DF936C017B018B0199
:10093000040F151FEB015E01AE18BF08C017D107E9
:1009400059F06991D601ED91FC910190F081E02D73
:10095000C6010995892B79F7C501DF91CF911F91C8
:100960000F91FF90EF90DF90CF90BF90AF900895E0
:10097000FC01538D448D252F30E0842F90E0821BA5
:10098000930B541710F0CF96089501970895FC012A
:10099000918D828D981761F0A28DAE0FBF2FB11D82
:1009A0005D968C91928D9F5F9F73928F90E00895DA
:1009B0008FEF9FEF0895FC01918D828D981731F094
:1009C000828DE80FF11D858D90E008958FEF9FEFE8
:1009D0000895FC01918D228D892F90E0805C9F4FBE
:1009E000821B91098F739927089583EE92E00E94EC
:1009F000E90421E0892B09F420E0822F089580E0AA
:100A000090E0892B29F00E94F50481110C940000DC
:100A10000895FC01A48DA80FB92FB11DA35ABF4F93
:100A20002C91848D90E001968F739927848FA689ED
:100A3000B7892C93A089B1898C91837080648C9341
:100A4000938D848D981306C00288F389E02D8081F0
:100A50008F7D80830895EF92FF920F931F93CF9322
:100A6000DF93EC0181E0888F9B8D8C8D98131AC0E9
:100A7000E889F989808185FF15C09FB7F894EE89D0
:100A8000FF896083E889F98980818370806480832D
:100A90009FBF81E090E0DF91CF911F910F91FF9078
:100AA000EF900895F62E0B8D10E00F5F1F4F0F7320
:100AB0001127E02E8C8D8E110CC00FB607FCFACFDB
:100AC000E889F989808185FFF5CFCE010E9409056B
:100AD000F1CFEB8DEC0FFD2FF11DE35AFF4FF082AC
:100AE0009FB7F8940B8FEA89FB8980818062CFCF12
:100AF000CF93DF93EC01888D8823B9F0AA89BB8955
:100B0000E889F9898C9185FD03C0808186FD0DC03F
:100B10000FB607FCF7CF8C9185FFF2CF808185FF60
:100B2000EDCFCE010E940905E9CFDF91CF91089565
:100B300090E0FC01E859FF4F2491FC01EC59F74F7C
:100B40003491FC01E05BF74FE491EE23C9F02223DE
:100B500039F0233001F1A8F4213019F1223029F1C4
:100B6000F0E0EE0FFF1FE45CF74FA591B4918FB753
:100B7000F894EC91611126C030953E233C938FBFD1
:100B800008952730A9F02830C9F0243049F7809122
:100B900080008F7D03C0809180008F7780938000DC
:100BA000DFCF84B58F7784BDDBCF84B58F7DFBCF5E
:100BB0008091B0008F778093B000D2CF8091B00049
:100BC0008F7DF9CF3E2BDACF3FB7F8948091BF02EB
:100BD0009091C002A091C102B091C20226B5A89B1B
:100BE00005C02F3F19F00196A11DB11D3FBFBA2FBF
:100BF000A92F982F8827BC01CD01620F711D811D7F
:100C0000911D42E0660F771F881F991F4A95D1F703
:100C100008958F929F92AF92BF92CF92DF92EF9200
:100C2000FF924B015C010E94E4056B017C010E9474
:100C3000E4056C197D098E099F09683E73408105A2
:100C40009105A8F321E0821A9108A108B10888EE65
:100C5000C80E83E0D81EE11CF11C81149104A1048C
:100C6000B10429F7FF90EF90DF90CF90BF90AF9045
:100C70009F908F9008952FB7F8946091BB02709168
:100C8000BC028091BD029091BE022FBF0895DF92F9
:100C9000EF92FF920F931F93CF93DF93EC0185E0C8
:100CA000E62EF12CFE01869FE00DF11D11249085AA
:100CB00096FF24C0192F177001E085E0D82E8FEF22
:100CC000800F8F3008F001E0602F70E0062FD69E75
:100CD000F001D79EF00D1124EC0FFD1F8085869545
:100CE000869586958770181701F16F5F7F4F603189
:100CF00068F38D81811302C011501D8385E08E9DA4
:100D0000F0018F9DF00D1124EC0FFD1F108681E086
:100D1000818712862296D783C683DF91CF911F9158
:100D20000F91FF90EF90DF900895CE010E9447064B
:100D3000C6CFFC0121E0613499F49C01255B3F4F53
:100D400061E0AC014E5F5F4F15866687178654875A
:100D5000438735962E173F07B9F7FC011582089592
:100D60003585631729F02F5F35962031C9F708952F
:100D7000622F0C944706CF93DF93FC0167FD12C0EE
:100D8000283080F4442319F08581873059F0EF0131
:100D9000A1E0B0E08D85882349F111962596A03118
:100DA000B105C1F780E018C085E08A9FE0018B9F04
:100DB000D00D1124CE0FDF1F442389F081E48887F2
:100DC00085818F5F858325E02A9FC0012B9F900D31
:100DD0001124E80FF91F8085DF91CF91089581E0FC
:100DE0008887F1CF2770687B622B0FC06623E1F202
:100DF0006770660F660F660F4423A1F360648581F8
:100E00008F5F85838770687F682B25E02A9FC001EC
:100E10002B9F900D1124E80FF91F6087862FDCCFE0
:100E2000FC0121E0611102C0069608953585631723
:100E300039F02F5F35962031C9F790E080E00895B2
:100E4000069635E0239F800D911D11240895FC0125
:100E500020812EBD9B012150310941F051810DB4FB
:100E600007FEFDCF4EB55EBD4193F5CF61507109D0
:100E7000860F971F0DB407FEFDCF2EB5FC01208312
:100E800008952A9A08952A98089508950F931F9314
:100E9000CF93DF93D82FC62F8A0180E591E00E947F
:100EA00068040E944307D260DEBDF8018C2F8823BE
:100EB00039F00DB407FEFDCF91919EBD8150F7CF63
:100EC000C00FD12FD11D0DB407FEFDCF0E944107E9
:100ED000CE01DF91CF911F910F9108950F931F9332
:100EE000CF93DF9300D0CDB7DEB7182F062F80E564
:100EF00091E00E9468040E944307126019830A83EC
:100F000062E070E0CE0101960E9427070E9441072F
:100F10000F900F90DF91CF911F910F9108958EBD8B
:100F200000000DB407FEFDCF8EB50895CF93C82FF6
:100F300080E591E00E9468040E9443078C2F0E9484
:100F40008F0780E00E948F07C82F0E9441078C2FD7
:100F5000CF9108958F929F92AF92BF92CF92DF92DE
:100F6000EF92FF920F931F93CF93DF93882E962ECD
:100F70005A010E943B066B017C012CE0C20ED11C81
:100F8000E11CF11C10E000E0D0E0C0E098280E94D5
:100F90003B066C197D098E099F0997FF1EC0692DBC
:100FA00080EF0E946E070E943B066C197D098E0936
:100FB0009F0997FF09C088EC0E94960787FFF3CF2F
:100FC00060E888EC0E946E0788EF0E949607C82FA1
:100FD000CF70C43081F0CE30B9F08C2FDF91CF913B
:100FE0001F910F91FF90EF90DF90CF90BF90AF9047
:100FF0009F908F9008950F5F1F4FA114B10439F295
:101000000A151B0521F6E9CFDF5FD33009F0BFCF0A
:10101000E4CFAF92BF92CF92DF92EF92FF920F9305
:101020001F93CF93DF93EC01B62EA42E69010E948B
:1010300010077C0186EDE114F10409F447C0D701E3
:10104000ED91FC91119787ED309709F43FC013960D
:101050009C9180E0981731F02081A21629F03396F8
:101060008F5FF8CFF0E0E0E0D601ED93FC938BEDDD
:10107000309761F1228126952695203108F02FE0E6
:1010800081E090E0A0E0B0E004C0880F991FAA1FA3
:10109000BB1F2A95D2F70197F801918380836B2DAE
:1010A00080EE0E946E0788ED0E949607D701149685
:1010B0009C91682F697F992329F0CA58DF4F688176
:1010C0006260682B88ED0E946E0780E0DF91CF910F
:1010D0001F910F91FF90EF90DF90CF90BF90AF9056
:1010E00008958F929F92AF92BF92CF92DF92EF922C
:1010F000FF920F931F93CF93DF93CDB7DEB72C975B
:101100000FB6F894DEBF0FBECDBF882E962EA42E4C
:10111000B22E68011C861B861A8619868E01075F0F
:101120001F4F9E01255F3F4F40E060E08DE893E058
:101130000E940908811115C089829A82AB82BC8203
:10114000DE82CD82F886EF82AE014F5F5F4F68E0AE
:1011500080E20E94460749855A8560E080E10E944E
:10116000AA072C960FB6F894DEBF0FBECDBFDF9155
:10117000CF911F910F91FF90EF90DF90CF90BF9094
:10118000AF909F908F900895AC0160E480E10E9441
:10119000460760E488E30E946E0760E280EF0E94E9
:1011A0006E0788EC0E94960787FFFBCF60E888EC0B
:1011B0000E946E0788EF0E9496078F70089588EF4F
:1011C0000E949607807C8034B1F018F4882301F1E6
:1011D0000895803819F0803CC9F0089588ED0E9488
:1011E000960781FD0DC069EC88ED0E946E0782E0D4
:1011F0008093E102089588ED0E94960781FDF3CF68
:101200006BEC88ED0E946E0783E0F2CF81E0F0CFB7
:1012100061ED88ED0E946E071092E1020895FC01D5
:1012200001900020E9F73197AF01481B590BBC0131
:1012300083EE92E00C948B048F929F92AF92BF92B8
:101240000F931F93CF93DF93CDB7DEB7A1970FB660
:10125000F894DEBF0FBECDBF19A2423008F44AE0B9
:101260008E010F5D1F4F842E912CB12CA12CA50156
:1012700094010E942713E62FB901CA01EA30F4F461
:10128000E05DD801EE938D01232B242B252B79F7DC
:1012900090E080E0109719F0CD010E940F09A1960F
:1012A0000FB6F894DEBF0FBECDBFDF91CF911F9177
:1012B0000F91BF90AF909F908F900895E95CE1CF20
:1012C000CF93DF93682F70E090E080E040E10E94D0
:1012D0001C09EC0183E291E00E940F098C0F9D1F15
:1012E000DF91CF910895CF93DF930E940F09EC0116
:1012F00083E291E00E940F098C0F9D1FDF91CF9137
:101300000895CF93DF93E7E8F3E04481558160814E
:10131000718183EE92E00E948B04EC0183E291E004
:101320000E940F098C0F9D1FDF91CF910895FC0142
:1013300080819181009711F00C94EB1308950F9325
:101340001F93CF93DF93C82F8B0180E591E00E941C
:1013500068040E94430788E00E948F07D0E0AE0136
:1013600070E060E0C8010E943A15209721F0BE01AC
:10137000C8010E942707C00FD11F0E944107CE015C
:10138000DF91CF911F910F9108952F923F924F922D
:101390005F926F927F928F929F92AF92BF92CF9205
:1013A000DF92EF92FF920F931F93CF93DF93CDB70E
:1013B000DEB761970FB6F894DEBF0FBECDBF582ED3
:1013C000662E442E490158011C861B861A861986F2
:1013D0008E01075F1F4F9E01255F3F4F40E060E099
:1013E0008DE893E00E940908782E81111EC1598270
:1013F0006A821B824C829E828D82B886AF82AE0149
:101400004F5F5F4F68E080E20E94460749855A853A
:1014100060E080E10E94AA0781118AC0C114D10452
:1014200009F47EC00B851C8557FE84C0F8018281BB
:1014300082608283E98A89859A859E878D87A11437
:10144000B10409F46DC00B851C85F801F181FF879B
:10145000F801828160E281FF60E188EE0E946E0700
:101460003C2C2D2C912C812C4D855E85F8016081C2
:1014700080E00E94AA07782EF6E08F1313C088EF51
:101480000E9496078295817021E08227F80192815F
:1014900080FB91F9928360E291FF60E188EE0E9407
:1014A0006E07E2CF8111C1C088EC0E94960782FFCF
:1014B00015C180E30E949607482E8E151F0411F077
:1014C00008F04988C7018819990997FF02C090E080
:1014D00080E0642C712C681679060CF4C301632D2E
:1014E000722D0E949F09382E292E64E088EC0E94FC
:1014F0006E07860C971CFF854F1620F08E149F04F4
:1015000008F4B2CF88EF0E949607F801928184FB1D
:1015100091F99283A818B9088E149F0408F08BCF14
:1015200049855A8580EA57FE80E860E00E94AA0754
:10153000782E7BC089859A859E878D87F801828168
:1015400081608283B1808FEF8B0D803408F0C9C039
:101550000E943B061B012C01FCE02F0E311C411C9C
:10156000511CF801828160E880FF60E488EE0E94EF
:101570006E07712C8B2D90E0988B8F87E114F1040E
:1015800009F446C0AF84B888EA14FB0408F4570194
:10159000A98AA6016A2D80E10E9446076A2D88E388
:1015A0000E946E07F8016081606280EF0E946E0702
:1015B00088EC0E94960787FFFBCF60E888EC0E94CA
:1015C0006E0788EF0E9496078F70782E612C912C01
:1015D000812C772009F443C00E943B0662197309ED
:1015E0008409950997FF3BC0F6E07F1609F462C0B5
:1015F0002EE07216C9F184E078120AC09FEF891AB2
:10160000990AED85FE85309799F1E815F90581F580
:1016100088EF0E949607F801928185FB90F99283EA
:1016200049855A85772009F47FCF872D61960FB6BB
:10163000F894DEBF0FBECDBFDF91CF911F910F9108
:10164000FF90EF90DF90CF90BF90AF909F908F90E2
:101650007F906F905F904F903F902F900895EA1881
:10166000FB08CA0CDB1C8ACF6394F3E06F1681F28F
:1016700060E088E30E946E07F601608180E10E94CD
:101680006E07698988E30E946E07F80160816062D5
:1016900080EF0E946E0788EC0E94960787FFFBCFC1
:1016A00060E888EC0E946E0788EF0E9496078F70B2
:1016B000782E8FCF88EF0E94960785FB882780F9C8
:1016C00021E08227F801928180FB90F9928360E803
:1016D00090FF60E488EE0E946E07CACF90EF792EEB
:1016E000A4CF8AED782EA1CFEF92FF920F931F9394
:1016F000CF93DF93CDB7DEB7C054D1090FB6F894BE
:10170000DEBF0FBECDBFE82EF12C0AE014E023E0CF
:101710004091000166E080E80E947108F82E50E0D8
:1017200040E060E080E00E94AA07182F80E30E945A
:101730009607BE016F5F7F4F0E949F0964E088ECAF
:101740000E946E07143009F586E291E00E940F09AD
:101750006F2D70E090E080E040E10E941C098AE477
:1017600091E00E940F0984E00E9460098F2DC05C07
:10177000DF4F0FB6F894DEBF0FBECDBFDF91CF9124
:101780001F910F91FF90EF900895153079F7109207
:10179000E202F0E0E0E009951092E202E7CFFC01FE
:1017A00024813581232B39F421E0FB0180818823BA
:1017B00049F020E007C0808191810E94411521E01D
:1017C000892BB9F7822F08950F931F93CF93DF933F
:1017D000EC0188819981009759F02A813B81261775
:1017E000370730F081E0DF91CF911F910F9108957D
:1017F0008B016F5F7F4F0E947414009759F099839B
:1018000088831B830A832C813D81232B59F7FC019C
:101810001082E8CF80E0E7CFEF92FF920F931F9303
:10182000CF93DF93EC017B01FB0101900020E9F7EE
:1018300031978F01061B170BB8010E94E40B28811A
:101840003981811113C02115310519F0C9010E9498
:10185000EB13198218821D821C821B821A82DF916F
:10186000CF911F910F91FF90EF9008951D830C83EE
:10187000B701C901DF91CF911F910F91FF90EF90B8
:101880000C944A151F920F920FB60F9211242F93AA
:101890003F934F935F936F937F938F939F93AF93F8
:1018A000BF93EF93FF9383EE92E00E940905FF91AF
:1018B000EF91BF91AF919F918F917F916F915F91C8
:1018C0004F913F912F910F900FBE0F901F90189541
:1018D0001F920F920FB60F9211242F938F939F9305
:1018E000EF93FF93E091F302F091F4028081E09195
:1018F000F902F091FA0282FD1BC090818091FC02F6
:101900008F5F8F732091FD02821741F0E091FC02FE
:10191000F0E0ED51FD4F958F8093FC02FF91EF9128
:101920009F918F912F910F900FBE0F901F90189540
:101930008081F4CF1F920F920FB60F9211242F9334
:101940003F938F939F93AF93BF938091BB029091EE
:10195000BC02A091BD02B091BE023091BA0223E058
:10196000230F2D3758F50196A11DB11D2093BA0202
:101970008093BB029093BC02A093BD02B093BE02C1
:101980008091BF029091C002A091C102B091C202A9
:101990000196A11DB11D8093BF029093C002A09338
:1019A000C102B093C202BF91AF919F918F913F91BD
:1019B0002F910F900FBE0F901F90189526E8230FC0
:1019C0000296A11DB11DD2CFCF93DF93EC011982F6
:1019D00018821B821A821D821C8270E060E00E94C5
:1019E000E40B2881398181110FC02115310519F0CF
:1019F000C9010E94EB13198218821D821C821B826E
:101A00001A82DF91CF9108951D821C8265E271E0F8
:101A1000C901DF91CF910C944A151092E602109201
:101A2000E50288EE93E0A0E0B0E08093E7029093B7
:101A3000E802A093E902B093EA028BE091E0909370
:101A4000E4028093E30285EC90E09093F0028093AF
:101A5000EF0284EC90E09093F2028093F10280EC2C
:101A600090E09093F4028093F30281EC90E09093E5
:101A7000F6028093F50282EC90E09093F802809356
:101A8000F70286EC90E09093FA028093F9021092AC
:101A9000FC021092FD021092FE021092FF028DE1F4
:101AA00091E090938E0380938D031092950381E0D3
:101AB00080939603109297038FE893E0909394039A
:101AC0008093930310928F0388E0809390038CE3BC
:101AD0008093910310929203EDE8F3E021E08FE808
:101AE00093E015862687178694878387359633E09B
:101AF000E83DF307B1F71092030481E1809380037E
:101B000087E893E00E94E40C81E893E00C94E40CF5
:101B1000CF93DF93CDB7DEB7C058D1090FB6F89495
:101B2000DEBF0FBECDBF789484B5826084BD84B51E
:101B3000816084BD85B5826085BD85B5816085BDC8
:101B400080916E00816080936E0010928100809180
:101B50008100826080938100809181008160809308
:101B60008100809180008160809380008091B1002D
:101B700084608093B1008091B00081608093B00058
:101B800080917A00846080937A0080917A008260EC
:101B900080937A0080917A00816080937A008091AE
:101BA0007A00806880937A001092C100E091F3027D
:101BB000F091F40282E08083E091EF02F091F00274
:101BC0001082E091F102F091F20280E180831092A4
:101BD000FB02E091F702F091F80286E08083E09149
:101BE000F502F091F602808180618083E091F50238
:101BF000F091F602808188608083E091F502F09197
:101C0000F602808180688083E091F502F091F6020F
:101C100080818F7D80838BE591E00E94730980E64F
:101C200091E00E947309229A0E9441071FB7F8941D
:101C30008091C302811124C0EAE5F8E08491EEE6C8
:101C4000F8E09491E82FF0E0EE0FFF1FEA5BF74F0A
:101C5000A591B491EC91E92321F461E08AE00E941E
:101C600098058AE00E946B048CB580618CBD8CB5B0
:101C700080648CBD8DE00E946B048BE00E946B043D
:101C80008091C3028F5F8093C3021FBF229A0E947C
:101C90004107219868E188E80E946E0760E288E7C2
:101CA0000E946E0760E088E70E946E0710E000E087
:101CB00088E60E9496070F5F1F4F80FF45C161ECC9
:101CC00088ED0E946E0760E680ED0E946E0764E07A
:101CD00088EE0E946E0788EE0E94960782FFFBCF77
:101CE0000E94DF0860E288EC0E946E0761E080E8F5
:101CF0000E946E0768EC70E080E090E00E940906A8
:101D00005E0181E4A80EB11CF0E04F2EF0E05F2EE2
:101D1000A0EC8A2EA6E09A2EB0E46B2EB6E07B2EC5
:101D200022242394E0E33E2E83EE92E00E94E90415
:101D3000181619060CF0A1C083EE92E00E94C704A9
:101D4000D50111961C921E9213961C921E92129708
:101D500015961C921E9214974AE0BE016F5F7F4F4A
:101D6000C0970E94BB12BE016F5F7F4FC5010E94EA
:101D70000C0C8091810390918203009709F4EFC0CD
:101D8000F501608171816115710509F4E6C040912A
:101D9000830350918403248135814217530708F44B
:101DA000DCC00E944A15D50114968D919C9115971F
:101DB000909386038093850315961C921E92149728
:101DC000C5010E94970960E771E081E893E00E94F5
:101DD000CF0B8823B1F062E771E087E893E00E94BF
:101DE0000C0C9092E0028092DF0287E791E00E9463
:101DF0000F090E94810964E670E080E090E00E9493
:101E0000090663E871E081E893E00E94CF0B882324
:101E1000B1F065E871E087E893E00E940C0C7092E5
:101E2000E0026092DF0287E791E00E940F090E94C2
:101E3000810964E670E080E090E00E9409066AE8AB
:101E400071E081E893E00E94CF0B8823B1F06CE849
:101E500071E087E893E00E940C0C9092E00280927F
:101E6000DF0287E791E00E940F090E94810964E682
:101E700070E080E090E00E94090661E971E081E88D
:101E800093E00E94CF0B8823A9F01092E2021092F7
:101E9000E0021092DF026EE571E081E893E00E94BB
:101EA0000C0C65E271E087E893E00E940C0CF0E016
:101EB000E0E0099565E271E087E893E00E94CF0BCE
:101EC000882309F466C01092E20283E991E00E943F
:101ED000730968EE73E080E090E00E94090680914B
:101EE000E202882309F475C183B1182F127081FDB5
:101EF0000CC088EC0E94960785FF03C00E94DF0893
:101F000010E2612F88EC0E946E078091E10281301F
:101F100009F442C008F4E9C0843008F040C0809160
:101F20008003807F8031D9F50E943B0668537F4F44
:101F30008F4F9F4F6093C4027093C5028093C60277
:101F40009093C70280E229C00F3F100709F0B0CE7E
:101F50008BEA92E00E947309CDCE0E94EB13F5014B
:101F60008081918190938203809381038281938108
:101F70009093840380938303848195819093860357
:101F8000809385031182108213821282158214823B
:101F900017CF2092E202A3CF83E18093800373EEF8
:101FA000E72E73E0F72E8701D8018D919D918D0169
:101FB000009739F0DC01ED91FC910680F781E02D6E
:101FC0000995E3E0F4E0E017F10771F780918003F1
:101FD000803409F4C8C008F090C0803209F4ADC064
:101FE000803309F4BAC08131A9F410920304D701F7
:101FF0008D919D917D01009739F0DC01ED91FC916F
:102000000480F581E02D0995E016F10681F782E163
:1020100080938003809180038093DE029091DD02A3
:1020200098138093DD02803A61F43092800380EA55
:1020300091E00E94730964E670E080E090E00E9405
:1020400009068091DE02803909F0C3C08091DC026C
:102050008111B4C05AECC52E52E0D52E62E1E62EB5
:10206000F12C02E110E030E020E041E066E080E8A1
:102070000E94C5098091D2029091D3028C3A95407A
:1020800041F48091D4029091D5028732924109F4B3
:102090008FC0309280038091C902843009F499C0C6
:1020A00083EC91E00E940F096091D2027091D302FB
:1020B00090E080E04AE00E941C0983EE91E00E94DB
:1020C0000F096091D4027091D50290E080E04AE05F
:1020D0000E941C0981EF91E00E9473096CEA7DE087
:1020E00080E090E00E94090674C080918003807FA8
:1020F000803109F454CF81E150CF813509F444C0D7
:10210000803809F451C0803509F084CF88EC0E94F2
:10211000960786FF7FCFE1E5E09380030E943B06B0
:102120006C5E7F4F8F4F9F4F6093C4027093C502C8
:102130008093C6029093C7026DCF0E943B06009128
:10214000C4021091C5022091C6023091C702601BE3
:10215000710B820B930B97FD5DCF61E088EE0E94BF
:102160006E0780E455CF88EE0E94960780FD52CF1F
:1021700088ED0E949607682F686088ED0E946E07C0
:10218000B0E5B093800346CF0E943B060091C402A5
:102190001091C5022091C6023091C702601B710BDD
:1021A000820B930B97FD36CFF0E9F093800332CF8B
:1021B0002092DC028091DA02809300018091C902B2
:1021C000823009F49EC088F4882331F1813009F40B
:1021D00063C04114510409F4A7CD0E94F50488237B
:1021E00009F4A0CD0E9400009BCD833009F412C1F8
:1021F000843079F71092E202AFEFA093C90261E058
:1022000086E00E94980585EA92E00E94730964EFD7
:1022100071E080E090E066CF83EF91E00E94730967
:102220006AE070E080E090E00E940906C12CD12CA9
:1022300076014AE0C701B6010E941C0983E291E0E1
:102240000E940F096AE070E080E090E00E940906B9
:1022500061E086E00E94980564EF71E080E090E024
:102260000E94090660E086E00E94980564EF71E034
:1022700080E090E00E940906BFEFCB1ADB0AEB0A70
:10228000FB0AE3E0CE16D104E104F10491F62092BA
:10229000C902309280039DCF80E092E00E947309D2
:1022A00087E192E00E947309D12CC12CF12CE12C22
:1022B00010E000E020E830E040E063E082E00E94CF
:1022C000C5098093C80289E292E00E940F098091BB
:1022D000C8020E94600960E288EE0E946E0780E8F2
:1022E0000E94740B811102C00F5F1F4F0C36F2E089
:1022F0001F07A9F781E80E94740B82E08093C9024E
:10230000C8CF88E392E00E94730981E592E00E94C1
:10231000730940E450E06CEC70E0C5010E943A158E
:1023200030E4E32EF12C10E000E020E040E061E03A
:1023300081E20E947108C5010E94C408C5010E9483
:10234000C40850E040E060E080E80E94AA07D12C79
:10235000C12CF12CE12C30E020E040E061E081E292
:102360000E94C509650146E0E42EF12C06E010E06C
:1023700030E020E040E063E081EA0E94C50930E0FF
:1023800020E040E063E081EA0E94C509E090DF02BE
:10239000F090E00220E4E20EF11C10E000E020E00A
:1023A00040E061E081E20E9471088093C802809160
:1023B000DF029091E002805C9F4F97FDCF9626E070
:1023C000959587952A95E1F708171907F4F4CE013A
:1023D00001960E94C4088093C80285E692E00E949C
:1023E0000F098091C8020E9460098091C802882369
:1023F00071F01092E20261E971E081E893E00E94DD
:102400000C0C80E792E00E94730983E077CF0F5FA6
:102410001F4FCDCF8EE792E00E94730960E288EEF5
:102420000E946E0781E80E94740B90E4E92EF12C63
:1024300010E000E020E040E060E080E00E947108F1
:1024400040E450E06CEC70E0CE0101960E943A1539
:10245000CE0101960E94C408ECEFF7E0DE01119670
:1024600084918D933196AA16BB06D1F7CE010196C1
:102470000E94C4088093C80281E992E00E94730917
:1024800080E8E82E82E0F82E10E000E020E040E056
:1024900061E081E20E94710840E450E06CEC70E081
:1024A000CE0101960E943A15CE0101960E94C40801
:1024B0008093C80262E771E087E893E00E94CF0B47
:1024C000882381F0DE01119690E080E09801245885
:1024D0003A4FF901E80FF91FE491ED93019680342A
:1024E0009105B9F765E871E087E893E00E94CF0BAA
:1024F000882381F0DE01119690E080E0980124505D
:102500003D4FF901E80FF91FE491ED9301968034F6
:102510009105B9F76CE871E087E893E00E94CF0B72
:10252000882381F0DE01119690E080E09801245824
:102530003F4FF901E80FF91FE491ED9301968034C4
:102540009105B9F7CE0101960E94C4088093C80294
:10255000005C1F4F003882E0180709F0ABCF94E011
:102560009093C90296CE81E893E00E94970987E88C
:1025700093E00C949709BB274A3031F4992322F455
:10258000BDE2909581959F4F0C94C712BB27FB012C
:102590005527AA27880F991FAA1FA41710F0A41B5C
:1025A00083955051B9F7A05DAA3308F0A95DA193B6
:1025B000009779F7B111B1931192CB010C94E0120D
:1025C000DC01FC01672F71917723E1F7329704C09A
:1025D0007C916D9370836291AE17BF07C8F3089525
:1025E0002F923F924F925F926F927F928F929F9223
:1025F000AF92BF92CF92DF92EF92FF920F931F9311
:10260000CF93DF93CDB7DEB7CA1BDB0B0FB6F894C1
:10261000DEBF0FBECDBF09942A88398848885F8401
:102620006E847D848C849B84AA84B984C884DF8072
:10263000EE80FD800C811B81AA81B981CE0FD11D56
:102640000FB6F894DEBF0FBECDBFED010895A1E235
:102650001A2EAA1BBB1BFD010DC0AA1FBB1FEE1F1C
:10266000FF1FA217B307E407F50720F0A21BB30B67
:10267000E40BF50B661F771F881F991F1A9469F7E3
:1026800060957095809590959B01AC01BD01CF013F
:102690000895EE0FFF1F0590F491E02D09940F931C
:1026A0001F93CF93DF938230910510F482E090E086
:1026B000E0910604F091070430E020E0B0E0A0E0F3
:1026C000309799F42115310509F44AC0281B390BBC
:1026D00024303105D8F58A819B816115710589F116
:1026E000FB0193838283FE0111C0408151810281ED
:1026F000138148175907E0F04817590799F41097C4
:1027000061F012960C93129713961C933296CF0198
:10271000DF91CF911F910F910895009306041093BC
:102720000704F4CF2115310551F04217530738F053
:10273000A901DB019A01BD01DF01F801C1CFEF0161
:10274000F9CF9093070480930604CDCFFE01E20FEA
:10275000F31F819391932250310939832883D7CF76
:102760002091040430910504232B41F420910301AE
:102770003091040130930504209304042091010159
:10278000309102012115310541F42DB73EB740913A
:10279000050150910601241B350BE0910404F091D2
:1027A0000504E217F307A0F42E1B3F0B2817390787
:1027B00078F0AC014E5F5F4F2417350748F04E0F9D
:1027C0005F1F5093050440930404819391939FCF1E
:1027D000F0E0E0E09CCFCF93DF930097E9F0FC01BD
:1027E000329713821282A0910604B0910704ED0182
:1027F00030E020E01097A1F420813181820F931FF7
:1028000020910404309105042817390709F061C0AC
:10281000F0930504E0930404DF91CF910895EA0159
:10282000CE17DF07E8F54A815B819E01411551050E
:10283000B1F7E901FB83EA8349915991C40FD51F90
:10284000EC17FD0761F4808191810296840F951F3A
:10285000E90199838883828193819B838A83F0E055
:10286000E0E012968D919C9113970097B9F52D9108
:102870003C911197CD010296820F931F2091040481
:10288000309105042817390739F6309751F5109221
:10289000070410920604B0930504A0930404BCCF6F
:1028A000D383C28340815181840F951FC817D907F4
:1028B00061F44E5F5F4F88819981480F591F5183A2
:1028C00040838A819B81938382832115310509F09E
:1028D000B0CFF0930704E09306049ECFFD01DC0126
:1028E000C0CF13821282D7CFB0E0A0E0EAE7F4E1D4
:1028F0000C94F2128C01009751F4CB010E944F13FB
:102900008C01C801CDB7DEB7E0E10C940E13FC01D9
:10291000E60FF71F9C0122503109E217F30708F474
:102920009DC0D901CD91DC911197C617D70798F0BA
:10293000C530D10530F3CE0104978617970708F309
:10294000C61BD70B2297C193D1936D937C93CF0174
:102950000E94EB13D6CF5B01AC1ABD0A4C018C0E62
:102960009D1EA0910604B0910704512C412CF12C1E
:10297000E12C109731F5809104049091050488159D
:10298000990509F05CC04616570608F058C08091BA
:10299000010190910201009741F48DB79EB74091DB
:1029A000050150910601841B950BE817F90708F003
:1029B00055C0F0930504E0930404F901718360832A
:1029C000A0CF8D919C91119712966C9012971396AF
:1029D0007C901397A815B90559F56C0142E0C40E17
:1029E000D11CCA14DB0420F1AC014A195B09DA01DD
:1029F0001296159780F06282738251834083D901C9
:102A00006D937C93E114F10471F0D7011396FC935C
:102A1000EE93129776CF22968C0F9D1FF90191832A
:102A20008083F301EFCFF0930704E093060469CFAE
:102A30004816590608F42C017D01D3019ACFCB0129
:102A40000E944F137C01009749F0AE01B8010E942B
:102A50003115C8010E94EB13870153CF10E000E04D
:102A600050CFFB01DC0102C001900D92415050405B
:102A7000D8F70895DC0101C06D9341505040E0F754
:102A80000895FB01DC018D91019080190110D9F3AB
:102A9000990B0895FB01DC0101900D920020E1F7F4
:102AA000089514E0CDE3D4E004C0FE010E94491370
:0C2AB0002196CE33D107C9F7F894FFCF70
:102ABC00FF000008048000000000002B058B04B808
:102ACC00047805E904C704DB04000000001007BB10
:102ADC000699060D0A00686561705F66656E675F32
:102AEC00736875695F7265713A20736574757020CF
:102AFC00737461747573203D20002C2064617461C3
:102B0C0020737461747573203D200076312E300073
:102B1C00636865636B6D38207374617274656400EF
:102B2C003600383934300053656C65637465642045
:102B3C003A2000370038393432003800383934350F
:102B4C0000310053656C656374204D6F64656C00D7
:102B5C005553425F41545441434845445F53554299
:102B6C0053544154455F52455345545F444556496F
:102B7C004345004E6F6E204170706C652044465585
:102B8C0020666F756E64202876656E646F7249647A
:102B9C003A20002C2070726F6475637449643A207B
:102BAC0000290052656C6561736520486F6D650086
:102BBC00434845434B4D385F484541505F46454E71
:102BCC00475F5348554900312E2068656170206677
:102BDC00656E672D73687569005374616C6C207336
:102BEC0074617475733A2000434845434B4D385F0C
:102BFC005345545F474C4F42414C5F5354415445ED
:102C0C0000322E2073657420676C6F62616C2073C8
:102C1C00746174650020202020646174613A200086
:102C2C0073656E64696E67206572726F7200332E05
:102C3C002068656170206F636375706174696F6E75
:102C4C00007061796C6F61642073656E64696E6786
:102C5C00202E2E2E00446F6E652100757362206944
:0A2C6C006E6974206572726F7200C9
:00000001FF
