:100000000C9411050C9442050C9442050C94420585
:100010000C9442050C9442050C9442050C94420544
:100020000C9442050C9442050C9442050C94420534
:100030000C9442050C9442050C9442050C94420524
:100040000C9442050C9442050C9442050C94420514
:100050000C9442050C9442050C9442050C94E60D58
:100060000C9442050C94B00D0C94860D0C94420532
:100070000C9442050C9442050C9442050C944205E4
:100080000C9442050C9442050C9442050C944205D4
:100090000C9442050C9442050C9442050C944205C4
:1000A0000C9442050C9442050C9442050C944205B4
:1000B0000C9442050C9442050C9442050C944205A4
:1000C0000C9442050C9442050C9442050C94420594
:1000D0000C9442050C9442050C9442050C94420584
:1000E0000C9442050C9453080C94EE060C94F10603
:1000F0000C94DC070C94FB060C94A3050C941D07D0
:100100000C94E6060C9401070C944A060C94CB065A
:100110000C94FD050C94EA060C94E2060C94FE0780
:100120000C94590E0C9421070C9467050C94D0067E
:100130000C9405070C94B7050C9494050C940F07C8
:100140000C9409070C94F7060C9413070C94C5053E
:100150000C9438140C94170700000A0B02090C0DBC
:100160000E0807030401000000000000000000006A
:10017000000000000000000000000000000000007F
:10018000000000001211100000000000000000003C
:10019000000000000000000000000000000000401F
:1001A000A0E3F0402DE9FC009FE530FF2FE1F800CF
:1001B0009FE530FF2FE1F4009FE5F4009FE501008B
:1001C00080E20010D0E5000051E3FBFFFF1AC410ED
:1001D0008FE2002091E5043091E5002080E50430B5
:1001E00080E5082091E50C3091E5082080E50C3091
:1001F00080E5BC009FE5BC109FE5BC409FE531FF5A
:100200002FE10000C4E5B4009FE574104FE2B02078
:100210009FE5021081E00020A0E3A8309FE5A84000
:100220009FE5095080E2005084E5D040C1E1F040F4
:10023000C0E1D840C1E1F840C0E1D041C1E1F041A6
:10024000C0E1D841C1E1F841C0E1D042C1E1F04292
:10025000C0E1D842C1E1F842C0E1D043C1E1F0437E
:10026000C0E1D843C1E1F843C0E13E0F07EE5FF0C3
:100270007FF5400080E2401081E2402082E20300EE
:1002800052E1E8FFFF3A0000A0E3150F07EE4FF040
:100290007FF56FF07FF5F080BDE82050574E443A6F
:1002A0005B636865636B6D385D0059710000717147
:1002B0000000EFBEADDEE0DD023479780000B4C1AD
:1002C000023400980334800100004001000004D98A
:1002D00002340000000000000000000000000000E8
:1002E000000000000000000000000000000000000E
:1002F00000000000000000000000000000000000FE
:1003000000000000000000000000000000000000ED
:100310000000000000000000000000000000DFF806
:1003200000F0617D0000028840F2A1239A42F6D1DC
:10033000F0B503AF84B0041C2E4D4FF6FF716288F8
:10034000914237D1D5E900012B4A904217D1914211
:1003500015D10021C5E90011D5E90801D5E90A2325
:10036000CDE90001CDE90223D5E90401D5E9062351
:10037000AE68B047214AC5E90201C5E900221F4A1B
:1003800090420DD191420BD10021C5E90011D5E970
:100390000401AA6900F017F8184AC5E9002209E02B
:1003A000184A904206D1174B9847011C0020104A6A
:1003B000164B98478020291CE2880023144CA04744
:1003C000002004B0F0BD042A05D30B68036004309C
:1003D0000431043AF7E7022A04D30B880380023081
:1003E0000231023A22B10B78037001300131013A37
:1003F00070470000003463657865656E6F64636DF7
:10040000656D0E0000EA456C0000815E0000F5722B
:10041000000000000000000000000000000000409C
:10042000A0E3F0402DE9FC009FE530FF2FE1F8004C
:100430009FE530FF2FE1F4009FE5F4009FE5010008
:1004400080E20010D0E5000051E3FBFFFF1AC4106A
:100450008FE2002091E5043091E5002080E5043032
:1004600080E5082091E50C3091E5082080E50C300E
:1004700080E5BC009FE5BC109FE5BC409FE531FFD7
:100480002FE10000C4E5B4009FE574104FE2B020F6
:100490009FE5021081E00020A0E3A8309FE5A8407E
:1004A0009FE5095080E2005084E5D040C1E1F04072
:1004B000C0E1D840C1E1F840C0E1D041C1E1F04124
:1004C000C0E1D841C1E1F841C0E1D042C1E1F04210
:1004D000C0E1D842C1E1F842C0E1D043C1E1F043FC
:1004E000C0E1D843C1E1F843C0E13E0F07EE5FF041
:1004F0007FF5400080E2401081E2402082E203006C
:1005000052E1E8FFFF3A0000A0E3150F07EE4FF0BD
:100510007FF56FF07FF5F080BDE82050574E443AEC
:100520005B636865636B6D385D00597400007174BE
:100530000000EFBEADDE00DE0234FD7B0000A8C18E
:10054000023400980334800100004001000024D9E7
:100550000234000000000000000000000000000065
:10056000000000000000000000000000000000008B
:10057000000000000000000000000000000000007B
:10058000000000000000000000000000000000006B
:100590000000000000000000000000000000DFF884
:1005A00000F0E1800000028840F2A1239A42F6D1D7
:1005B000F0B503AF84B0041C2E4D4FF6FF71628876
:1005C000914237D1D5E900012B4A904217D191428F
:1005D00015D10021C5E90011D5E90801D5E90A23A3
:1005E000CDE90001CDE90223D5E90401D5E90623CF
:1005F000AE68B047214AC5E90201C5E900221F4A99
:1006000090420DD191420BD10021C5E90011D5E9ED
:100610000401AA6900F017F8184AC5E9002209E0A8
:10062000184A904206D1174B9847011C0020104AE7
:10063000164B98478020291CE2880023144CA047C1
:10064000002004B0F0BD042A05D30B680360043019
:100650000431043AF7E7022A04D30B8803800230FE
:100660000231023A22B10B78037001300131013AB4
:1006700070470000003463657865656E6F64636D74
:10068000656D0E0000EA056F0000A16000000976AC
:10069000000000000000000000000000000000401A
:1006A000A0E3F0402DE9FC009FE530FF2FE1F800CA
:1006B0009FE530FF2FE1F4009FE5F4009FE5010086
:1006C00080E20010D0E5000051E3FBFFFF1AC410E8
:1006D0008FE2002091E5043091E5002080E50430B0
:1006E00080E5082091E50C3091E5082080E50C308C
:1006F00080E5BC009FE5BC109FE5BC409FE531FF55
:100700002FE10000C4E5B4009FE574104FE2B02073
:100710009FE5021081E00020A0E3A8309FE5A840FB
:100720009FE5095080E2005084E5D040C1E1F040EF
:10073000C0E1D840C1E1F840C0E1D041C1E1F041A1
:10074000C0E1D841C1E1F841C0E1D042C1E1F0428D
:10075000C0E1D842C1E1F842C0E1D043C1E1F04379
:10076000C0E1D843C1E1F843C0E13E0F07EE5FF0BE
:100770007FF5400080E2401081E2402082E20300E9
:1007800052E1E8FFFF3A0000A0E3150F07EE4FF03B
:100790007FF56FF07FF5F080BDE82050574E443A6A
:1007A0005B636865636B6D385D0065700000817028
:1007B0000000EFBEADDEA0DD023499770000A0C1DD
:1007C0000234009803348001000040010000C4D8C6
:1007D00002340000000000000000000000000000E3
:1007E0000000000000000000000000000000000009
:1007F00000000000000000000000000000000000F9
:1008000000000000000000000000000000000000E8
:100810000000000000000000000000000000DFF801
:1008200000F0817C0000028840F2A1239A42F6D1B8
:10083000F0B503AF84B0041C2E4D4FF6FF716288F3
:10084000914237D1D5E900012B4A904217D191420C
:1008500015D10021C5E90011D5E90801D5E90A2320
:10086000CDE90001CDE90223D5E90401D5E906234C
:10087000AE68B047214AC5E90201C5E900221F4A16
:1008800090420DD191420BD10021C5E90011D5E96B
:100890000401AA6900F017F8184AC5E9002209E026
:1008A000184A904206D1174B9847011C0020104A65
:1008B000164B98478020291CE2880023144CA0473F
:1008C000002004B0F0BD042A05D30B680360043097
:1008D0000431043AF7E7022A04D30B88038002307C
:1008E0000231023A22B10B78037001300131013A32
:1008F00070470000003463657865656E6F64636DF2
:10090000656D0E0000EA656B0000615E0000157207
:1009100000000000000000000000000000000800CF
:1009200000000200000000000000000000000000C5
:1009300000000000000000000000000000000000B7
:1009400000000000000000000000000000000000A7
:100950000000000000340000000000000000000063
:100960002200250028002B002E0031003400020157
:100970000000050108010B010000210024002700F0
:100980002A002D003000330001010000040107019E
:100990000A01050505050705080808080202020204
:1009A0000A0A08080404040401010101010101010B
:1009B0000303030303030303040707070C0C0C0CD6
:1009C0000C0C0C0C020202020606060606060606BF
:1009D0000B0B0B0B0B0B0B0B01021020200808104C
:1009E000204010204080020102010804020101029F
:1009F0000408102040808040201008040201800478
:100A000002018040201008040201080402010102D2
:100A10000408102040800102040810204080590E74
:100A2000381411241FBECFEFD1E2DEBFCDBF00E0EE
:100A30000CBF25E0AAEBB3E001C01D92AA30B207BB
:100A4000E1F713E0A0E0B2E0EEEAFDE200E00BBF68
:100A500002C007900D92AA3BB107D9F715E0C0E19B
:100A6000D5E000E006C021970109802FFE010E9419
:100A70009714CF30D10780E00807A9F70E94DE0E57
:100A80000C94C5160C9400008CBD9DBD089590E09B
:100A9000FC01E852F64F24918E56964FFC0184914A
:100AA000882399F090E0880F991FFC01E858F64FD1
:100AB000A591B491FC01E25AF64F859194918FB7BC
:100AC000F894EC91E22BEC938FBF08950895AF92C8
:100AD000BF92CF92DF92EF92FF920F931F93CF932B
:100AE000DF936C017B018B01040F151FEB015E018D
:100AF000AE18BF08C017D10759F06991D601ED9122
:100B0000FC910190F081E02DC6011995892B79F7B0
:100B1000C501DF91CF911F910F91FF90EF90DF9072
:100B2000CF90BF90AF900895FC01538D448D252F39
:100B300030E0842F90E0821B930B541710F0CF9677
:100B4000089501970895FC01918D828D981761F0A9
:100B5000A28DAE0FBF2FB11D5D968C91928D9F5FC0
:100B60009F73928F90E008958FEF9FEF0895FC019F
:100B7000918D828D981731F0828DE80FF11D858D52
:100B800090E008958FEF9FEF0895FC01918D228DE5
:100B9000892F90E0805C9F4F821B91098F7399276A
:100BA000089585EE93E00E94C50521E0892B09F4A4
:100BB00020E0822F0895FC01A48DA80FB92FB11D4C
:100BC000A35ABF4F2C91848D90E001968F73992783
:100BD000848FA689B7892C93A089B1898C91837061
:100BE00080648C93938D848D981306C00288F3895A
:100BF000E02D80818F7D80830895EF92FF920F9387
:100C00001F93CF93DF93EC0181E0888F9B8D8C8DB8
:100C100098131AC0E889F989808185FF15C09FB7AC
:100C2000F894EE89FF896083E889F989808183706F
:100C3000806480839FBF81E090E0DF91CF911F911E
:100C40000F91FF90EF900895F62E0B8D10E00F5F3F
:100C50001F4F0F731127E02E8C8D8E110CC00FB615
:100C600007FCFACFE889F989808185FFF5CFCE01AD
:100C70000E94DB05F1CFEB8DEC0FFD2FF11DE35A48
:100C8000FF4FF0829FB7F8940B8FEA89FB89808130
:100C90008062CFCFCF93DF93EC01888D8823B9F0AA
:100CA000AA89BB89E889F9898C9185FD03C0808177
:100CB00086FD0DC00FB607FCF7CF8C9185FFF2CFF4
:100CC000808185FFEDCFCE010E94DB05E9CFDF916A
:100CD000CF91089580E090E0892B29F00E94D10502
:100CE00081110E94000080E090E0892B49F080E0B3
:100CF00090E0892B29F00E94000081110E940000E1
:100D000080E090E0892B49F080E090E0892B29F089
:100D10000E94000081110E94000080E090E0892B79
:100D200049F080E090E0892B29F00E9400008111B9
:100D30000C9400000895282F30E0F901E85AFE4F86
:100D40009491F901E852F64F44912E56364FF9012D
:100D50002491222309F435C0992311F19150923145
:100D6000F8F4E92FF0E08827E754F94F8F4F0C94FF
:100D70009714EA06EE06CB06E206E606D006F10672
:100D8000F706FB060107050709070F071307D0063B
:100D900017071D072107809180008F7780938000BF
:100DA000E22FF0E0EE0FFF1FE25AF64FA591B4914B
:100DB0008FB7F894EC91611148C040954E234C9345
:100DC0008FBF0895809180008F7DE8CF8091800053
:100DD000877FE4CF84B58F7784BDE2CF84B58F7DE4
:100DE000FBCF8091B0008F778093B000D9CF8091F6
:100DF000B0008F7DF9CF809190008F778093900025
:100E0000CFCF809190008F7DF9CF80919000877F28
:100E1000F5CF8091A0008F778093A000C1CF809103
:100E2000A0008F7DF9CF8091A000877FF5CF8091C2
:100E300020018F7780932001B3CF809120018F7D97
:100E4000F9CF80912001877FF5CF4E2BB8CF3FB7E8
:100E5000F8948091BF039091C003A091C103B09119
:100E6000C20326B5A89B05C02F3F19F00196A11D0E
:100E7000B11D3FBFBA2FA92F982F8827BC01CD01E4
:100E8000620F711D811D911D42E0660F771F881F43
:100E9000991F4A95D1F708958F929F92AF92BF9272
:100EA000CF92DF92EF92FF924B015C010E942707E5
:100EB0006B017C010E9427076C197D098E099F092F
:100EC000683E734081059105A8F321E0821A9108DC
:100ED000A108B10888EEC80E83E0D81EE11CF11C01
:100EE00081149104A104B10429F7FF90EF90DF90E1
:100EF000CF90BF90AF909F908F9008952FB7F894A8
:100F00006091BB037091BC038091BD039091BE03BF
:100F10002FBF0895DF92EF92FF920F931F93CF930D
:100F2000DF93EC0185E0E62EF12CFE01869FE00DBB
:100F3000F11D1124908596FF24C0192F177001E030
:100F400085E0D82E8FEF800F8F3008F001E0602F02
:100F500070E0062FD69EF001D79EF00D1124EC0F05
:100F6000FD1F80858695869586958770181701F1F7
:100F70006F5F7F4F603168F38D81811302C0115024
:100F80001D8385E08E9DF0018F9DF00D1124EC0FE7
:100F9000FD1F108681E0818712862296D783C68343
:100FA000DF91CF911F910F91FF90EF90DF90089507
:100FB000CE010E948A07C6CFFC0121E0613499F47A
:100FC0009C01255B3F4F61E0AC014E5F5F4F158692
:100FD000668717865487438735962E173F07B9F7DC
:100FE000FC01158208953585631729F02F5F35962A
:100FF0002031C9F70895622F0C948A07CF93DF93AD
:10100000FC0167FD12C0283080F4442319F085816B
:10101000873059F0EF01A1E0B0E08D85882349F1D8
:1010200011962596A031B105C1F780E018C085E082
:101030008A9FE0018B9FD00D1124CE0FDF1F442328
:1010400089F081E4888785818F5F858325E02A9FE9
:10105000C0012B9F900D1124E80FF91F8085DF91AF
:10106000CF91089581E08887F1CF2770687B622B4C
:101070000FC06623E1F26770660F660F660F4423A8
:10108000A1F3606485818F5F85838770687F682B9B
:1010900025E02A9FC0012B9F900D1124E80FF91F16
:1010A0006087862FDCCFFC0121E0611102C006962B
:1010B00008953585631739F02F5F35962031C9F7CC
:1010C00090E080E00895069635E0239F800D911D05
:1010D00011240895FC0120812EBD9B01215031096E
:1010E00041F051810DB407FEFDCF4EB55EBD419379
:1010F000F5CF61507109860F971F0DB407FEFDCF24
:101100002EB5FC0120830895289A08952898089503
:1011100008950F931F93CF93DF93D82FC62F8A0183
:1011200080E591E00E9444050E948608D260DEBD01
:10113000F8018C2F882339F00DB407FEFDCF919173
:101140009EBD8150F7CFC00FD12FD11D0DB407FE2A
:10115000FDCF0E948408CE01DF91CF911F910F91A6
:1011600008950F931F93CF93DF931F921F92CDB7D4
:10117000DEB7182F062F80E591E00E9444050E94FB
:101180008608126019830A8362E070E0CE0101963E
:101190000E946A080E9484080F900F90DF91CF91FF
:1011A0001F910F9108958EBD00000DB407FEFDCF75
:1011B0008EB50895CF93C82F80E591E00E94440535
:1011C0000E9486088C2F0E94D30880E00E94D308DA
:1011D000C82F0E9484088C2FCF9108958F929F92E0
:1011E000AF92BF92CF92DF92EF92FF920F931F9335
:1011F000CF93DF93882E962E5A010E947E076B01B3
:101200007C012CE0C20ED11CE11CF11C10E000E0BE
:10121000D0E0C0E098280E947E076C197D098E09F5
:101220009F0997FF1EC0692D80EF0E94B1080E94A0
:101230007E076C197D098E099F0997FF09C088EC0C
:101240000E94DA0887FFF3CF60E888EC0E94B108BB
:1012500088EF0E94DA08C82FCF70C43081F0CE30FA
:10126000B9F08C2FDF91CF911F910F91FF90EF90EC
:10127000DF90CF90BF90AF909F908F9008950F5FB9
:101280001F4FA114B10439F20A151B0521F6E9CF4D
:10129000DF5FD33009F0BFCFE4CFAF92BF92CF92E0
:1012A000DF92EF92FF920F931F93CF93DF93EC01A6
:1012B000B62EA42E69010E9453087C0186EDE1142C
:1012C000F10409F447C0D701ED91FC91119787ED26
:1012D000309709F43FC013969C9180E0981731F045
:1012E0002081A21629F033968F5FF8CFF0E0E0E07E
:1012F000D601ED93FC938BED309761F12281269519
:101300002695203108F02FE081E090E0A0E0B0E0E9
:1013100004C0880F991FAA1FBB1F2A95D2F70197F7
:10132000F801918380836B2D80EE0E94B10888EDD7
:101330000E94DA08D70114969C91682F697F99233F
:1013400029F0CA58DF4F68816260682B88ED0E94DF
:10135000B10880E0DF91CF911F910F91FF90EF9046
:10136000DF90CF90BF90AF9008958F929F92AF92F1
:10137000BF92CF92DF92EF92FF920F931F93CF9382
:10138000DF93CDB7DEB72C970FB6F894DEBF0FBE54
:10139000CDBF882E962EA42EB22E68011C861B86E9
:1013A0001A8619868E01075F1F4F9E01255F3F4FEA
:1013B00040E060E08FE894E00E944D09811115C083
:1013C00089829A82AB82BC82DE82CD82F886EF82ED
:1013D000AE014F5F5F4F68E080E20E948908498557
:1013E0005A8560E080E10E94EE082C960FB6F894D2
:1013F000DEBF0FBECDBFDF91CF911F910F91FF9048
:10140000EF90DF90CF90BF90AF909F908F90089516
:10141000AC0160E480E10E94890860E488E30E94F6
:10142000B10860E280EF0E94B10888EC0E94DA08FF
:1014300087FFFBCF60E888EC0E94B10888EF0E942C
:10144000DA088F70089588EF0E94DA08807C803473
:10145000B1F018F4882301F10895803819F0803C28
:10146000C9F0089588ED0E94DA0881FD0DC069EC8D
:1014700088ED0E94B10882E08093E303089588ED2F
:101480000E94DA0881FDF3CF6BEC88ED0E94B10871
:1014900083E0F2CF81E0F0CF61ED88ED0E94B108EA
:1014A0001092E3030895FC0101900020E9F73197C1
:1014B000AF01481B590BBC0185EE93E00C94670506
:1014C0008F929F92AF92BF920F931F93CF93DF9310
:1014D000CDB7DEB7A1970FB6F894DEBF0FBECDBF74
:1014E00019A2423008F44AE08E010F5D1F4F842E8E
:1014F000912CB12CA12CA50194010E947514E62F0A
:10150000B901CA01EA30F4F4E05DD801EE938D012F
:10151000232B242B252B79F790E080E0109719F0EE
:10152000CD010E94530AA1960FB6F894DEBF0FBEFC
:10153000CDBFDF91CF911F910F91BF90AF909F9042
:101540008F900895E95CE1CFCF93DF930E94530A17
:10155000EC0183E292E00E94530A8C0F9D1FDF9101
:10156000CF910895CF93DF93682F70E090E080E0F3
:1015700040E10E94600AEC0183E292E00E94530A7B
:101580008C0F9D1FDF91CF910895CF93DF93E9E8F2
:10159000F4E0448155816081718185EE93E00E9481
:1015A0006705EC0183E292E00E94530A8C0F9D1FB5
:1015B000DF91CF910895FC0180819181009711F016
:1015C0000C943B1508950F931F93CF93DF93C82F6F
:1015D0008B0180E591E00E9444050E94860888E026
:1015E0000E94D308D0E0AE0170E060E0C8010E9424
:1015F000AE16209721F0BE01C8010E946A08C00FF4
:10160000D11F0E948408CE01DF91CF911F910F91CD
:1016100008952F923F924F925F926F927F928F9296
:101620009F92AF92BF92CF92DF92EF92FF920F9371
:101630001F93CF93DF93CDB7DEB761970FB6F894C2
:10164000DEBF0FBECDBF582E662E442E4901580175
:101650001C861B861A8619868E01075F1F4F9E0106
:10166000255F3F4F40E060E08FE894E00E944D0925
:10167000782E81111EC159826A821B824C829E8201
:101680008D82B886AF82AE014F5F5F4F68E080E227
:101690000E94890849855A8560E080E10E94EE0831
:1016A00081118AC0C114D10409F47EC00B851C8548
:1016B00057FE84C0F801828182608283E98A89852D
:1016C0009A859E878D87A114B10409F46DC00B859E
:1016D0001C85F801F181FF87F801828160E281FFBA
:1016E00060E188EE0E94B1083C2C2D2C912C812CBD
:1016F0004D855E85F801608180E00E94EE08782EBD
:10170000F6E08F1313C088EF0E94DA08829581708B
:1017100021E08227F801928180FB91F9928360E2B7
:1017200091FF60E188EE0E94B108E2CF8111C1C053
:1017300088EC0E94DA0882FF15C180E30E94DA0873
:10174000482E8E151F0411F008F04988C70188192A
:10175000990997FF02C090E080E0642C712C681614
:1017600079060CF4C301632D722D0E94E30A382E12
:10177000292E64E088EC0E94B108860C971CFF8536
:101780004F1620F08E149F0408F4B2CF88EF0E9409
:10179000DA08F801928184FB91F99283A818B908BC
:1017A0008E149F0408F08BCF49855A8580EA57FE36
:1017B00080E860E00E94EE08782E7BC089859A85DB
:1017C0009E878D87F801828181608283B1808FEF4F
:1017D0008B0D803408F0C9C00E947E071B012C01CC
:1017E000FCE02F0E311C411C511CF801828160E885
:1017F00080FF60E488EE0E94B108712C8B2D90E090
:10180000988B8F87E114F10409F446C0AF84B8883F
:10181000EA14FB0408F45701A98AA6016A2D80E1A5
:101820000E9489086A2D88E30E94B108F80160814E
:10183000606280EF0E94B10888EC0E94DA0887FF9E
:10184000FBCF60E888EC0E94B10888EF0E94DA08BC
:101850008F70782E612C912C812C772009F443C055
:101860000E947E07621973098409950997FF3BC09E
:10187000F6E07F1609F462C02EE07216C9F184E02A
:1018800078120AC09FEF891A990AED85FE85309774
:1018900099F1E815F90581F588EF0E94DA08F80159
:1018A000928185FB90F9928349855A85772009F4C6
:1018B0007FCF872D61960FB6F894DEBF0FBECDBFE8
:1018C000DF91CF911F910F91FF90EF90DF90CF901C
:1018D000BF90AF909F908F907F906F905F904F9050
:1018E0003F902F900895EA18FB08CA0CDB1C8ACFA2
:1018F0006394F3E06F1681F260E088E30E94B10820
:10190000F601608180E10E94B108698988E30E9444
:10191000B108F8016081606280EF0E94B10888EC34
:101920000E94DA0887FFFBCF60E888EC0E94B108CC
:1019300088EF0E94DA088F70782E8FCF88EF0E9490
:10194000DA0885FB882780F921E08227F801928157
:1019500080FB90F9928360E890FF60E488EE0E943B
:10196000B108CACF90EF792EA4CF8AED782EA1CFFF
:10197000EF92FF920F931F93CF93DF93CDB7DEB714
:10198000C054D1090FB6F894DEBF0FBECDBFE82E0C
:10199000F12C0AE014E023E04091000266E080E8C8
:1019A0000E94B509F82E50E040E060E080E00E941F
:1019B000EE08182F80E30E94DA08BE016F5F7F4FA8
:1019C0000E94E30A64E088EC0E94B108143009F533
:1019D00086E292E00E94530A6F2D70E090E080E072
:1019E00040E10E94600A8AE492E00E94530A84E087
:1019F0000E94B20A8F2DC05CDF4F0FB6F894DEBF95
:101A00000FBECDBFDF91CF911F910F91FF90EF904F
:101A10000895153079F71092E403F0E0E0E01995AD
:101A20001092E403E7CFFC0124813581232B39F4A4
:101A300021E0FB018081882349F020E007C08081FC
:101A400091810E94B51621E0892BB9F7822F089564
:101A50000F931F93CF93DF93EC01888199810097B7
:101A600059F02A813B812617370730F081E0DF915A
:101A7000CF911F910F9108958B016F5F7F4F0E944F
:101A8000C415009759F0998388831B830A832C819E
:101A90003D81232B59F7FC011082E8CF80E0E7CF8E
:101AA000EF92FF920F931F93CF93DF93EC017B0193
:101AB000FB0101900020E9F731978F01061B170BFE
:101AC000B8010E94280D28813981811113C0211588
:101AD000310519F0C9010E943B15198218821D8237
:101AE0001C821B821A82DF91CF911F910F91FF9070
:101AF000EF9008951D830C83B701C901DF91CF9149
:101B00001F910F91FF90EF900C94BE161F920F92B1
:101B10000FB60F9211240BB60F922F933F934F9352
:101B20005F936F937F938F939F93AF93BF93EF9345
:101B3000FF9385EE93E00E94DB05FF91EF91BF914B
:101B4000AF919F918F917F916F915F914F913F9155
:101B50002F910F900BBE0F900FBE0F901F901895F6
:101B60001F920F920FB60F9211240BB60F922F9364
:101B70008F939F93EF93FF93E091F503F091F6031A
:101B80008081E091FB03F091FC0382FD1DC09081F8
:101B90008091FE038F5F8F732091FF03821741F0C6
:101BA000E091FE03F0E0EB51FC4F958F8093FE0334
:101BB000FF91EF919F918F912F910F900BBE0F90FE
:101BC0000FBE0F901F9018958081F2CF1F920F9239
:101BD0000FB60F9211242F933F938F939F93AF9340
:101BE000BF938091BB039091BC03A091BD03B091C2
:101BF000BE033091BA0323E0230F2D3758F5019629
:101C0000A11DB11D2093BA038093BB039093BC0325
:101C1000A093BD03B093BE038091BF039091C00316
:101C2000A091C103B091C2030196A11DB11D809383
:101C3000BF039093C003A093C103B093C203BF91AD
:101C4000AF919F918F913F912F910F900FBE0F9069
:101C50001F90189526E8230F0296A11DB11DD2CF23
:101C6000CF93DF93EC01198218821B821A821D82A6
:101C70001C8270E060E00E94280D2881398181116A
:101C80000FC02115310519F0C9010E943B151982B9
:101C900018821D821C821B821A82DF91CF910895C7
:101CA0001D821C8265E272E0C901DF91CF910C9424
:101CB000BE161092E8031092E70388EE93E0A0E0CE
:101CC000B0E08093E9039093EA03A093EB03B09311
:101CD000EC038BE092E09093E6038093E50385ECC0
:101CE00090E09093F2038093F10384EC90E0909362
:101CF000F4038093F30380EC90E09093F6038093D9
:101D0000F50381EC90E09093F8038093F70382EC65
:101D100090E09093FA038093F90386EC90E090931F
:101D2000FC038093FB031092FE031092FF031092BA
:101D300000041092010480910401846080930401E6
:101D4000809105018460809305018DE192E090937C
:101D5000900480938F041092970481E080939804FC
:101D60001092990481E994E09093960480939504ED
:101D70001092910488E0809392048CE38093930402
:101D800010929404EFE8F4E021E081E994E01586F4
:101D90002687178694878387359634E0EA3DF307D4
:101DA000B1F71092050581E18093820489E894E0FF
:101DB0000E94300E83E894E00C94300ECF93DF93B2
:101DC000CDB7DEB7C058D1090FB6F894DEBF0FBE4D
:101DD000CDBF789484B5826084BD84B5816084BDB4
:101DE00085B5826085BD85B5816085BD80916E00B9
:101DF000816080936E0010928100809181008260EA
:101E00008093810080918100816080938100809126
:101E100080008160809380008091B1008460809315
:101E2000B1008091B00081608093B00080919100FA
:101E300082608093910080919100816080939100F5
:101E4000809190008160809390008091A1008260D9
:101E50008093A1008091A10081608093A100809176
:101E6000A00081608093A000809121018260809316
:101E700021018091210181608093210180912001C5
:101E800081608093200180917A00846080937A0041
:101E900080917A00826080937A0080917A008160DC
:101EA00080937A0080917A00806880937A00109203
:101EB000C100E091F503F091F60382E08083E091A8
:101EC000F103F091F2031082E091F303F091F40337
:101ED00080E180831092FD03E091F903F091FA0311
:101EE00086E08083E091F703F091F80380818061C0
:101EF0008083E091F703F091F8038081886080830C
:101F0000E091F703F091F803808180688083E0918D
:101F1000F703F091F80380818F7D80838BE592E059
:101F20000E94A40A80E692E00E94A40A209A0E94DD
:101F300084081FB7F8948091C303811124C0E7EC93
:101F4000F9E08491EDE0FAE09491E82FF0E0EE0FF3
:101F5000FF1FE858F64FA591B491EC91E92321F4C5
:101F600061E085E30E949B0685E30E9447058CB5EE
:101F700080618CBD8CB580648CBD84E30E94470574
:101F800083E30E9447058091C3038F5F8093C3035F
:101F90001FBF209A0E9484086E9868E188E80E941A
:101FA000B10860E288E70E94B10860E088E70E941B
:101FB000B10810E000E088E60E94DA080F5F1F4FCA
:101FC00080FF53C161EC88ED0E94B10860E680EDAE
:101FD0000E94B10864E088EE0E94B10888EE0E9479
:101FE000DA0882FFFBCF0E94230A60E288EC0E949D
:101FF000B10861E080E80E94B10868EC70E080E020
:1020000090E00E944C075E0181E4A80EB11CE0EC58
:102010006E2EE6E07E2EF0E88F2EF2E09F2E222438
:102020002394A5E04A2EA5E05A2EB0E33B2E85EE80
:1020300093E00E94C505181619060CF0AFC085EE96
:1020400093E00E94A305D50111961C921E9213964F
:102050001C921E92129715961C921E9214974AE09B
:10206000BE016F5F7F4FC0970E944014BE016F5F3B
:102070007F4FC5010E94500D80918304909184048C
:10208000009709F4FDC0F50160817181611571054A
:1020900009F4F4C04091850450918604248135816F
:1020A0004217530708F4EAC00E94BE16D5011496E1
:1020B0008D919C9115979093880480938704159631
:1020C0001C921E921497C5010E94DB0A60E772E021
:1020D00083E894E00E94130D8823D1F062E772E058
:1020E00089E894E00E94500D7092E2036092E1034F
:1020F0009092E0038092DF0387E792E00E94530A08
:102100000E94C50A64E670E080E090E00E944C07FF
:1021100063E872E083E894E00E94130D8823E1F005
:1021200065E872E089E894E00E94500D80E496E052
:102130009093E2038093E1039092E0038092DF03A7
:1021400087E792E00E94530A0E94C50A64E670E0A5
:1021500080E090E00E944C076AE872E083E894E037
:102160000E94130D8823D1F06CE872E089E894E0B6
:102170000E94500D7092E2036092E1039092E0039E
:102180008092DF0387E792E00E94530A0E94C50A0B
:1021900064E670E080E090E00E944C0761E972E044
:1021A00083E894E00E94130D8823A9F01092E403C1
:1021B0001092E2031092E1036EE572E083E894E08E
:1021C0000E94500D65E272E089E894E00E94500D93
:1021D000F0E0E0E0199565E272E089E894E00E94A1
:1021E000130D882309F466C01092E40383E992E09A
:1021F0000E94A40A68EE73E080E090E00E944C0721
:102200008091E403882309F473C18CB1182F1074F2
:1022100086FD0CC088EC0E94DA0885FF03C00E948E
:10222000230A10E2612F88EC0E94B1088091E30339
:10223000813009F442C008F4E7C0843008F040C09F
:1022400080918204807F8031D9F50E947E07685397
:102250007F4F8F4F9F4F6093C4037093C50380934C
:10226000C6039093C70380E229C00F3F100709F00F
:10227000A2CE8BEA93E00E94A40ABFCE0E943B1537
:10228000F5018081918190938404809383048281FD
:1022900093819093860480938504848195819093A3
:1022A000880480938704118210821382128215821F
:1022B000148209CF2092E403A3CF83E180938204A8
:1022C00075EEE72E74E0F72E8701D8018D919D9170
:1022D0008D01009739F0DC01ED91FC910680F781CA
:1022E000E02D19954016510681F7809182048034C3
:1022F00009F4C8C008F090C0803209F4ADC0803342
:1023000009F4BAC08131A9F410920505F701819151
:1023100091917F01009739F0DC01ED91FC910480EF
:10232000F581E02D1995E016F10681F782E18093A1
:102330008204809182048093DE039091DD039813E0
:102340008093DD03803A61F43092820480EA92E067
:102350000E94A40A64E670E080E090E00E944C07CE
:102360008091DE03803909F0C3C08091DC038111C4
:10237000B4C05AECC52E53E0D52E62E1E62EF12C06
:1023800002E110E030E020E041E066E080E80E94F9
:10239000090B8091D2039091D3038C3A954041F47C
:1023A0008091D4039091D5038732924109F48FC074
:1023B000309282048091C903843009F499C083EC7F
:1023C00092E00E94530A6091D2037091D30390E08F
:1023D00080E04AE00E94600A83EE92E00E94530A85
:1023E0006091D4037091D50390E080E04AE00E94B0
:1023F000600A81EF92E00E94A40A6CEA7DE080E02E
:1024000090E00E944C0774C080918204807F8031EC
:1024100009F456CF81E152CF813509F444C08038A8
:1024200009F451C0803509F084CF88EC0E94DA08A5
:1024300086FF7FCFE1E5E09382040E947E076C5E19
:102440007F4F8F4F9F4F6093C4037093C50380935A
:10245000C6039093C7036DCF0E947E070091C4030B
:102460001091C5032091C6033091C703601B710B07
:10247000820B930B97FD5DCF61E088EE0E94B1085F
:1024800080E455CF88EE0E94DA0880FD52CF88EDB7
:102490000E94DA08682F686088ED0E94B108B0E5F4
:1024A000B093820446CF0E947E070091C40310912E
:1024B000C5032091C6033091C703601B710B820BCB
:1024C000930B97FD36CFF0E9F093820432CF209240
:1024D000DC038091DA03809300028091C90382308B
:1024E00009F495C040F48823E9F0813009F45AC01A
:1024F0000E946A069CCD833009F412C18430C1F772
:102500001092E4039FEF9093C90361E086E00E947C
:102510009B0685EA93E00E94A40A64EF71E080E0E4
:1025200090E06FCF83EF92E00E94A40A6AE070E02F
:1025300080E090E00E944C07C12CD12C76014AE04B
:10254000C701B6010E94600A83E292E00E94530A2A
:102550006AE070E080E090E00E944C0761E086E075
:102560000E949B0664EF71E080E090E00E944C07BF
:1025700060E086E00E949B0664EF71E080E090E0FE
:102580000E944C07BFEFCB1ADB0AEB0AFB0AE3E021
:10259000CE16D104E104F10491F62092C9033092E1
:1025A0008204A6CF80E093E00E94A40A87E193E032
:1025B0000E94A40AD12CC12CF12CE12C10E000E0E7
:1025C00020E830E040E063E082E00E94090B809365
:1025D000C80389E293E00E94530A8091C8030E94D5
:1025E000B20A60E288EE0E94B10880E80E94B80C4E
:1025F000811102C00F5F1F4F0C36F2E01F07A9F7D1
:1026000081E80E94B80C82E08093C903C8CF88E3B8
:1026100093E00E94A40A81E593E00E94A40A40E4AA
:1026200050E06CEC70E0C5010E94AE1630E4E32E81
:10263000F12C10E000E020E040E061E081E20E9447
:10264000B509C5010E94080AC5010E94080A50E0A8
:1026500040E060E080E80E94EE08D12CC12CF12C13
:10266000E12C30E020E040E061E081E20E94090BD3
:10267000650146E0E42EF12C06E010E030E020E0B9
:1026800040E063E081EA0E94090B30E020E040E096
:1026900063E081EA0E94090BE090E103F090E2031D
:1026A00020E4E20EF11C10E000E020E040E061E0F8
:1026B00081E20E94B5098093C8038091E103909163
:1026C000E203805C9F4F97FDCF9626E09595879516
:1026D0002A95E1F708171907F4F4CE0101960E9434
:1026E000080A8093C80385E693E00E94530A80910C
:1026F000C8030E94B20A8091C803882371F0109227
:10270000E40361E972E083E894E00E94500D80E701
:1027100093E00E94A40A83E077CF0F5F1F4FCDCFD5
:102720008EE793E00E94A40A60E288EE0E94B1085E
:1027300081E80E94B80C80E4E82EF12C10E000E063
:1027400020E040E060E080E00E94B50940E450E015
:102750006CEC70E0CE0101960E94AE16CE0101969F
:102760000E94080AEEE1F9E0DE01119684918D9352
:102770003196AA16BB06D1F7CE0101960E94080A2F
:102780008093C80381E993E00E94A40AC090DF030C
:10279000D090E003760110E000E020E040E061E04E
:1027A00081E20E94B50940E450E06CEC70E0CE019B
:1027B00001960E94AE16CE0101960E94080A8093EF
:1027C000C8030C151D050CF051C062E772E089E8E2
:1027D00094E00E94130D882381F0DE01119690E0B1
:1027E00080E098012256394FF901E80FF91FE49172
:1027F000ED93019680349105B9F765E872E089E8B8
:1028000094E00E94130D882381F0DE01119690E080
:1028100080E09801225E3B4FF901E80FF91FE49137
:10282000ED93019680349105B9F76CE872E089E880
:1028300094E00E94130D882381F0DE01119690E050
:1028400080E0980122563E4FF901E80FF91FE4910C
:10285000ED93019680349105B9F7CE0101960E945F
:10286000080A8093C803005C1F4FABCF84E0CCCE36
:1028700083E894E00E94DB0A89E894E00C94DB0A88
:10288000BB274A3031F4992322F4BDE2909581951B
:102890009F4F0C944C14BB27FB015527AA27880F88
:1028A000991FAA1FA41710F0A41B83955051B9F7C4
:1028B000A05DAA3308F0A95DA193009779F7B11143
:1028C000B1931192CB010C946514DC01FC01672FCC
:1028D00071917723E1F7329704C07C916D937083F7
:1028E0006291AE17BF07C8F30895A1E21A2EAA1B82
:1028F000BB1BFD010DC0AA1FBB1FEE1FFF1FA217B0
:10290000B307E407F50720F0A21BB30BE40BF50BAC
:10291000661F771F881F991F1A9469F76095709535
:10292000809590959B01AC01BD01CF010895EE0FFC
:10293000FF1F881F8BBF0790F691E02D19940F930E
:102940001F93CF93DF938230910510F482E090E0E3
:10295000E0910805F091090530E020E0B0E0A0E04A
:10296000309799F42115310509F44AC0281B390B19
:1029700024303105D8F58A819B816115710589F173
:10298000FB0193838283FE0111C04081518102814A
:10299000138148175907E0F04817590799F4109721
:1029A00061F012960C93129713961C933296CF01F6
:1029B000DF91CF911F910F91089500930805109317
:1029C0000905F4CF2115310551F04217530738F0AE
:1029D000A901DB019A01BD01DF01F801C1CFEF01BF
:1029E000F9CF9093090580930805CDCFFE01E20F42
:1029F000F31F819391932250310939832883D7CFD4
:102A00002091060530910705232B41F42091030204
:102A100030910402309307052093060520910102AE
:102A2000309102022115310541F42DB73EB7409196
:102A3000050250910602241B350BE0910605F0912A
:102A40000705E217F307A0F42E1B3F0B28173907E1
:102A500078F0AC014E5F5F4F2417350748F04E0FFA
:102A60005F1F5093070540930605819391939FCF75
:102A7000F0E0E0E09CCFCF93DF930097E9F0FC011A
:102A8000329713821282A0910805B0910905ED01D9
:102A900030E020E01097A1F420813181820F931F54
:102AA00020910605309107052817390709F061C004
:102AB000F0930705E0930605DF91CF910895EA01B1
:102AC000CE17DF07E8F54A815B819E01411551056C
:102AD000B1F7E901FB83EA8349915991C40FD51FEE
:102AE000EC17FD0761F4808191810296840F951F98
:102AF000E90199838883828193819B838A83F0E0B3
:102B0000E0E012968D919C9113970097B9F52D9165
:102B10003C911197CD010296820F931F20910605DB
:102B2000309107052817390739F6309751F510927B
:102B3000090510920805B0930705A0930605BCCFC0
:102B4000D383C28340815181840F951FC817D90751
:102B500061F44E5F5F4F88819981480F591F5183FF
:102B600040838A819B81938382832115310509F0FB
:102B7000B0CFF0930905E09308059ECFFD01DC017D
:102B8000C0CF13821282D7CF4F925F926F927F9203
:102B90008F929F92AF92BF92CF92DF92EF92FF926D
:102BA0000F931F93CF93DF938C01009799F4CB0180
:102BB000DF91CF911F910F91FF90EF90DF90CF9019
:102BC000BF90AF909F908F907F906F905F904F904D
:102BD0000C949F14FC01E60FF71F9C012250310951
:102BE000E217F30708F4AEC0D901CD91DC9111973B
:102BF000C617D70720F1C530D10578F0CE0104976C
:102C00008617970750F0C61BD70B2297C193D19315
:102C10006D937C93CF010E943B15C801DF91CF914A
:102C20001F910F91FF90EF90DF90CF90BF90AF90EA
:102C30009F908F907F906F905F904F9008955B0171
:102C4000AC1ABD0A4C018C0E9D1EA0910805B091D6
:102C50000905512C412CF12CE12C109731F5809174
:102C60000605909107058815990509F05CC0461680
:102C7000570608F058C08091010290910202009717
:102C800041F48DB79EB74091050250910602841B16
:102C9000950BE817F90708F055C0F0930705E09386
:102CA0000605F90171836083B8CF8D919C911197CE
:102CB00012966C90129713967C901397A815B905ED
:102CC00059F56C0142E0C40ED11CCA14DB0420F19A
:102CD000AC014A195B09DA011296159780F06282FD
:102CE000738251834083D9016D937C93E114F10485
:102CF00071F0D7011396FC93EE9312978ECF229624
:102D00008C0F9D1FF90191838083F301EFCFF09326
:102D10000905E093080581CF4816590608F42C01EF
:102D20007D01D3019ACFCB010E949F147C010097B3
:102D300049F0AE01B8010E94A516C8010E943B15DA
:102D400087016BCF10E000E068CFFB01DC0102C01F
:102D500001900D9241505040D8F70895DC0101C018
:102D60006D9341505040E0F70895FB01DC018D91D7
:102D7000019080190110D9F3990B0895FB01DC0132
:102D800001900D920020E1F7089515E0C0E1D5E033
:102D900000E006C0802FFE010E9497142196011DBD
:0E2DA000C131D10780E00807A9F7F894FFCFF2
:102DAE00FF00000A05800000000000FD0567059485
:102DBE00054A06C505A305B705000000005308FE29
:102DCE0007DC070D0A00686561705F66656E675FF8
:102DDE00736875695F7265713A20736574757020DA
:102DEE00737461747573203D20002C2064617461CE
:102DFE0020737461747573203D200076312E30007F
:102E0E00636865636B6D38207374617274656400FA
:102E1E003600383934300053656C65637465642050
:102E2E003A2000370038393432003800383934351A
:102E3E0000310053656C656374204D6F64656C00E2
:102E4E005553425F41545441434845445F535542A4
:102E5E0053544154455F52455345545F444556497A
:102E6E004345004E6F6E204170706C652044465590
:102E7E0020666F756E64202876656E646F72496485
:102E8E003A20002C2070726F6475637449643A2086
:102E9E0000290052656C6561736520486F6D650091
:102EAE00434845434B4D385F484541505F46454E7C
:102EBE00475F5348554900312E2068656170206682
:102ECE00656E672D73687569005374616C6C207341
:102EDE0074617475733A2000434845434B4D385F17
:102EEE005345545F474C4F42414C5F5354415445F8
:102EFE0000322E2073657420676C6F62616C2073D4
:102F0E00746174650020202020646174613A200091
:102F1E0073656E64696E67206572726F7200332E10
:102F2E002068656170206F636375706174696F6E80
:102F3E00007061796C6F61642073656E64696E6791
:102F4E00202E2E2E00446F6E65210075736220694F
:0A2F5E006E6974206572726F7200D4
:00000001FF
